{
  "contractName": "SimpleCollectible",
  "abi": [
    {
      "inputs": [],
      "stateMutability": "nonpayable",
      "type": "constructor"
    },
    {
      "anonymous": false,
      "inputs": [
        {
          "indexed": true,
          "internalType": "address",
          "name": "owner",
          "type": "address"
        },
        {
          "indexed": true,
          "internalType": "address",
          "name": "approved",
          "type": "address"
        },
        {
          "indexed": true,
          "internalType": "uint256",
          "name": "tokenId",
          "type": "uint256"
        }
      ],
      "name": "Approval",
      "type": "event"
    },
    {
      "anonymous": false,
      "inputs": [
        {
          "indexed": true,
          "internalType": "address",
          "name": "owner",
          "type": "address"
        },
        {
          "indexed": true,
          "internalType": "address",
          "name": "operator",
          "type": "address"
        },
        {
          "indexed": false,
          "internalType": "bool",
          "name": "approved",
          "type": "bool"
        }
      ],
      "name": "ApprovalForAll",
      "type": "event"
    },
    {
      "anonymous": false,
      "inputs": [
        {
          "indexed": true,
          "internalType": "address",
          "name": "previousOwner",
          "type": "address"
        },
        {
          "indexed": true,
          "internalType": "address",
          "name": "newOwner",
          "type": "address"
        }
      ],
      "name": "OwnershipTransferred",
      "type": "event"
    },
    {
      "anonymous": false,
      "inputs": [
        {
          "indexed": true,
          "internalType": "address",
          "name": "from",
          "type": "address"
        },
        {
          "indexed": true,
          "internalType": "address",
          "name": "to",
          "type": "address"
        },
        {
          "indexed": true,
          "internalType": "uint256",
          "name": "tokenId",
          "type": "uint256"
        }
      ],
      "name": "Transfer",
      "type": "event"
    },
    {
      "inputs": [
        {
          "internalType": "address",
          "name": "to",
          "type": "address"
        },
        {
          "internalType": "uint256",
          "name": "tokenId",
          "type": "uint256"
        }
      ],
      "name": "approve",
      "outputs": [],
      "stateMutability": "nonpayable",
      "type": "function"
    },
    {
      "inputs": [
        {
          "internalType": "address",
          "name": "owner",
          "type": "address"
        }
      ],
      "name": "balanceOf",
      "outputs": [
        {
          "internalType": "uint256",
          "name": "",
          "type": "uint256"
        }
      ],
      "stateMutability": "view",
      "type": "function",
      "constant": true
    },
    {
      "inputs": [],
      "name": "currentTokenId",
      "outputs": [
        {
          "internalType": "uint256",
          "name": "",
          "type": "uint256"
        }
      ],
      "stateMutability": "view",
      "type": "function",
      "constant": true
    },
    {
      "inputs": [
        {
          "internalType": "uint256",
          "name": "tokenId",
          "type": "uint256"
        }
      ],
      "name": "getApproved",
      "outputs": [
        {
          "internalType": "address",
          "name": "",
          "type": "address"
        }
      ],
      "stateMutability": "view",
      "type": "function",
      "constant": true
    },
    {
      "inputs": [
        {
          "internalType": "address",
          "name": "owner",
          "type": "address"
        },
        {
          "internalType": "address",
          "name": "operator",
          "type": "address"
        }
      ],
      "name": "isApprovedForAll",
      "outputs": [
        {
          "internalType": "bool",
          "name": "",
          "type": "bool"
        }
      ],
      "stateMutability": "view",
      "type": "function",
      "constant": true
    },
    {
      "inputs": [],
      "name": "myName",
      "outputs": [
        {
          "internalType": "string",
          "name": "",
          "type": "string"
        }
      ],
      "stateMutability": "view",
      "type": "function",
      "constant": true
    },
    {
      "inputs": [],
      "name": "name",
      "outputs": [
        {
          "internalType": "string",
          "name": "",
          "type": "string"
        }
      ],
      "stateMutability": "view",
      "type": "function",
      "constant": true
    },
    {
      "inputs": [],
      "name": "owner",
      "outputs": [
        {
          "internalType": "address",
          "name": "",
          "type": "address"
        }
      ],
      "stateMutability": "view",
      "type": "function",
      "constant": true
    },
    {
      "inputs": [
        {
          "internalType": "uint256",
          "name": "tokenId",
          "type": "uint256"
        }
      ],
      "name": "ownerOf",
      "outputs": [
        {
          "internalType": "address",
          "name": "",
          "type": "address"
        }
      ],
      "stateMutability": "view",
      "type": "function",
      "constant": true
    },
    {
      "inputs": [],
      "name": "renounceOwnership",
      "outputs": [],
      "stateMutability": "nonpayable",
      "type": "function"
    },
    {
      "inputs": [
        {
          "internalType": "address",
          "name": "from",
          "type": "address"
        },
        {
          "internalType": "address",
          "name": "to",
          "type": "address"
        },
        {
          "internalType": "uint256",
          "name": "tokenId",
          "type": "uint256"
        }
      ],
      "name": "safeTransferFrom",
      "outputs": [],
      "stateMutability": "nonpayable",
      "type": "function"
    },
    {
      "inputs": [
        {
          "internalType": "address",
          "name": "from",
          "type": "address"
        },
        {
          "internalType": "address",
          "name": "to",
          "type": "address"
        },
        {
          "internalType": "uint256",
          "name": "tokenId",
          "type": "uint256"
        },
        {
          "internalType": "bytes",
          "name": "_data",
          "type": "bytes"
        }
      ],
      "name": "safeTransferFrom",
      "outputs": [],
      "stateMutability": "nonpayable",
      "type": "function"
    },
    {
      "inputs": [
        {
          "internalType": "address",
          "name": "operator",
          "type": "address"
        },
        {
          "internalType": "bool",
          "name": "approved",
          "type": "bool"
        }
      ],
      "name": "setApprovalForAll",
      "outputs": [],
      "stateMutability": "nonpayable",
      "type": "function"
    },
    {
      "inputs": [
        {
          "internalType": "bytes4",
          "name": "interfaceId",
          "type": "bytes4"
        }
      ],
      "name": "supportsInterface",
      "outputs": [
        {
          "internalType": "bool",
          "name": "",
          "type": "bool"
        }
      ],
      "stateMutability": "view",
      "type": "function",
      "constant": true
    },
    {
      "inputs": [],
      "name": "symbol",
      "outputs": [
        {
          "internalType": "string",
          "name": "",
          "type": "string"
        }
      ],
      "stateMutability": "view",
      "type": "function",
      "constant": true
    },
    {
      "inputs": [
        {
          "internalType": "address",
          "name": "from",
          "type": "address"
        },
        {
          "internalType": "address",
          "name": "to",
          "type": "address"
        },
        {
          "internalType": "uint256",
          "name": "tokenId",
          "type": "uint256"
        }
      ],
      "name": "transferFrom",
      "outputs": [],
      "stateMutability": "nonpayable",
      "type": "function"
    },
    {
      "inputs": [
        {
          "internalType": "address",
          "name": "newOwner",
          "type": "address"
        }
      ],
      "name": "transferOwnership",
      "outputs": [],
      "stateMutability": "nonpayable",
      "type": "function"
    },
    {
      "inputs": [
        {
          "internalType": "uint256",
          "name": "tokenId",
          "type": "uint256"
        },
        {
          "internalType": "string",
          "name": "uri",
          "type": "string"
        }
      ],
      "name": "setTokenURI",
      "outputs": [],
      "stateMutability": "nonpayable",
      "type": "function"
    },
    {
      "inputs": [
        {
          "internalType": "uint256",
          "name": "tokenId",
          "type": "uint256"
        }
      ],
      "name": "tokenURI",
      "outputs": [
        {
          "internalType": "string",
          "name": "",
          "type": "string"
        }
      ],
      "stateMutability": "view",
      "type": "function",
      "constant": true
    },
    {
      "inputs": [
        {
          "internalType": "string",
          "name": "name1",
          "type": "string"
        }
      ],
      "name": "buyTokens",
      "outputs": [],
      "stateMutability": "nonpayable",
      "type": "function"
    }
  ],
  "bytecode": "0x608060405260006008556040518060400160405280600481526020017f74657374000000000000000000000000000000000000000000000000000000008152506009908051906020019062000056929190620001f9565b503480156200006457600080fd5b506040518060400160405280600881526020017f4b6576696e4e46540000000000000000000000000000000000000000000000008152506040518060400160405280600581526020017f4b4556494e0000000000000000000000000000000000000000000000000000008152508160009080519060200190620000e9929190620001f9565b50806001908051906020019062000102929190620001f9565b50505062000125620001196200012b60201b60201c565b6200013360201b60201c565b6200030e565b600033905090565b6000600760009054906101000a900473ffffffffffffffffffffffffffffffffffffffff16905081600760006101000a81548173ffffffffffffffffffffffffffffffffffffffff021916908373ffffffffffffffffffffffffffffffffffffffff1602179055508173ffffffffffffffffffffffffffffffffffffffff168173ffffffffffffffffffffffffffffffffffffffff167f8be0079c531659141344cd1fd0a4f28419497f9722a3daafe3b4186f6b6457e060405160405180910390a35050565b8280546200020790620002d8565b90600052602060002090601f0160209004810192826200022b576000855562000277565b82601f106200024657805160ff191683800117855562000277565b8280016001018555821562000277579182015b828111156200027657825182559160200191906001019062000259565b5b5090506200028691906200028a565b5090565b5b80821115620002a55760008160009055506001016200028b565b5090565b7f4e487b7100000000000000000000000000000000000000000000000000000000600052602260045260246000fd5b60006002820490506001821680620002f157607f821691505b60208210811415620003085762000307620002a9565b5b50919050565b61318e806200031e6000396000f3fe608060405234801561001057600080fd5b506004361061012b5760003560e01c806370a08231116100ad578063b88d4fde11610071578063b88d4fde1461031a578063c87b56dd14610336578063e985e9c514610366578063f2fde38b14610396578063fae2dd4b146103b25761012b565b806370a0823114610288578063715018a6146102b85780638da5cb5b146102c257806395d89b41146102e0578063a22cb465146102fe5761012b565b8063162094c4116100f4578063162094c4146101e857806323b872dd1461020457806342842e0e146102205780636352211e1461023c5780636f85e62c1461026c5761012b565b80629a9b7b1461013057806301ffc9a71461014e57806306fdde031461017e578063081812fc1461019c578063095ea7b3146101cc575b600080fd5b6101386103d0565b6040516101459190611d56565b60405180910390f35b61016860048036038101906101639190611ddd565b6103d6565b6040516101759190611e25565b60405180910390f35b6101866104b8565b6040516101939190611ed9565b60405180910390f35b6101b660048036038101906101b19190611f27565b61054a565b6040516101c39190611f95565b60405180910390f35b6101e660048036038101906101e19190611fdc565b6105cf565b005b61020260048036038101906101fd9190612151565b6106e7565b005b61021e600480360381019061021991906121ad565b610782565b005b61023a600480360381019061023591906121ad565b6107e2565b005b61025660048036038101906102519190611f27565b610802565b6040516102639190611f95565b60405180910390f35b61028660048036038101906102819190612200565b6108b4565b005b6102a2600480360381019061029d9190612249565b6108ce565b6040516102af9190611d56565b60405180910390f35b6102c0610986565b005b6102ca610a0e565b6040516102d79190611f95565b60405180910390f35b6102e8610a38565b6040516102f59190611ed9565b60405180910390f35b610318600480360381019061031391906122a2565b610aca565b005b610334600480360381019061032f9190612383565b610ae0565b005b610350600480360381019061034b9190611f27565b610b42565b60405161035d9190611ed9565b60405180910390f35b610380600480360381019061037b9190612406565b610b54565b60405161038d9190611e25565b60405180910390f35b6103b060048036038101906103ab9190612249565b610be8565b005b6103ba610ce0565b6040516103c79190611ed9565b60405180910390f35b60085481565b60007f80ac58cd000000000000000000000000000000000000000000000000000000007bffffffffffffffffffffffffffffffffffffffffffffffffffffffff1916827bffffffffffffffffffffffffffffffffffffffffffffffffffffffff191614806104a157507f5b5e139f000000000000000000000000000000000000000000000000000000007bffffffffffffffffffffffffffffffffffffffffffffffffffffffff1916827bffffffffffffffffffffffffffffffffffffffffffffffffffffffff1916145b806104b157506104b082610d6e565b5b9050919050565b6060600080546104c790612475565b80601f01602080910402602001604051908101604052809291908181526020018280546104f390612475565b80156105405780601f1061051557610100808354040283529160200191610540565b820191906000526020600020905b81548152906001019060200180831161052357829003601f168201915b5050505050905090565b600061055582610dd8565b610594576040517f08c379a000000000000000000000000000000000000000000000000000000000815260040161058b90612519565b60405180910390fd5b6004600083815260200190815260200160002060009054906101000a900473ffffffffffffffffffffffffffffffffffffffff169050919050565b60006105da82610802565b90508073ffffffffffffffffffffffffffffffffffffffff168373ffffffffffffffffffffffffffffffffffffffff16141561064b576040517f08c379a0000000000000000000000000000000000000000000000000000000008152600401610642906125ab565b60405180910390fd5b8073ffffffffffffffffffffffffffffffffffffffff1661066a610e44565b73ffffffffffffffffffffffffffffffffffffffff161480610699575061069881610693610e44565b610b54565b5b6106d8576040517f08c379a00000000000000000000000000000000000000000000000000000000081526004016106cf9061263d565b60405180910390fd5b6106e28383610e4c565b505050565b6106ef610e44565b73ffffffffffffffffffffffffffffffffffffffff1661070d610a0e565b73ffffffffffffffffffffffffffffffffffffffff1614610763576040517f08c379a000000000000000000000000000000000000000000000000000000000815260040161075a906126a9565b60405180910390fd5b61076d3383610f05565b6107778282610f23565b816008819055505050565b61079361078d610e44565b82610f97565b6107d2576040517f08c379a00000000000000000000000000000000000000000000000000000000081526004016107c99061273b565b60405180910390fd5b6107dd838383611075565b505050565b6107fd83838360405180602001604052806000815250610ae0565b505050565b6000806002600084815260200190815260200160002060009054906101000a900473ffffffffffffffffffffffffffffffffffffffff169050600073ffffffffffffffffffffffffffffffffffffffff168173ffffffffffffffffffffffffffffffffffffffff1614156108ab576040517f08c379a00000000000000000000000000000000000000000000000000000000081526004016108a2906127cd565b60405180910390fd5b80915050919050565b80600990805190602001906108ca929190611c9a565b5050565b60008073ffffffffffffffffffffffffffffffffffffffff168273ffffffffffffffffffffffffffffffffffffffff16141561093f576040517f08c379a00000000000000000000000000000000000000000000000000000000081526004016109369061285f565b60405180910390fd5b600360008373ffffffffffffffffffffffffffffffffffffffff1673ffffffffffffffffffffffffffffffffffffffff168152602001908152602001600020549050919050565b61098e610e44565b73ffffffffffffffffffffffffffffffffffffffff166109ac610a0e565b73ffffffffffffffffffffffffffffffffffffffff1614610a02576040517f08c379a00000000000000000000000000000000000000000000000000000000081526004016109f9906126a9565b60405180910390fd5b610a0c60006112d1565b565b6000600760009054906101000a900473ffffffffffffffffffffffffffffffffffffffff16905090565b606060018054610a4790612475565b80601f0160208091040260200160405190810160405280929190818152602001828054610a7390612475565b8015610ac05780601f10610a9557610100808354040283529160200191610ac0565b820191906000526020600020905b815481529060010190602001808311610aa357829003601f168201915b5050505050905090565b610adc610ad5610e44565b8383611397565b5050565b610af1610aeb610e44565b83610f97565b610b30576040517f08c379a0000000000000000000000000000000000000000000000000000000008152600401610b279061273b565b60405180910390fd5b610b3c84848484611504565b50505050565b6060610b4d82611560565b9050919050565b6000600560008473ffffffffffffffffffffffffffffffffffffffff1673ffffffffffffffffffffffffffffffffffffffff16815260200190815260200160002060008373ffffffffffffffffffffffffffffffffffffffff1673ffffffffffffffffffffffffffffffffffffffff16815260200190815260200160002060009054906101000a900460ff16905092915050565b610bf0610e44565b73ffffffffffffffffffffffffffffffffffffffff16610c0e610a0e565b73ffffffffffffffffffffffffffffffffffffffff1614610c64576040517f08c379a0000000000000000000000000000000000000000000000000000000008152600401610c5b906126a9565b60405180910390fd5b600073ffffffffffffffffffffffffffffffffffffffff168173ffffffffffffffffffffffffffffffffffffffff161415610cd4576040517f08c379a0000000000000000000000000000000000000000000000000000000008152600401610ccb906128f1565b60405180910390fd5b610cdd816112d1565b50565b60098054610ced90612475565b80601f0160208091040260200160405190810160405280929190818152602001828054610d1990612475565b8015610d665780601f10610d3b57610100808354040283529160200191610d66565b820191906000526020600020905b815481529060010190602001808311610d4957829003601f168201915b505050505081565b60007f01ffc9a7000000000000000000000000000000000000000000000000000000007bffffffffffffffffffffffffffffffffffffffffffffffffffffffff1916827bffffffffffffffffffffffffffffffffffffffffffffffffffffffff1916149050919050565b60008073ffffffffffffffffffffffffffffffffffffffff166002600084815260200190815260200160002060009054906101000a900473ffffffffffffffffffffffffffffffffffffffff1673ffffffffffffffffffffffffffffffffffffffff1614159050919050565b600033905090565b816004600083815260200190815260200160002060006101000a81548173ffffffffffffffffffffffffffffffffffffffff021916908373ffffffffffffffffffffffffffffffffffffffff160217905550808273ffffffffffffffffffffffffffffffffffffffff16610ebf83610802565b73ffffffffffffffffffffffffffffffffffffffff167f8c5be1e5ebec7d5bd14f71427d1e84f3dd0314c0f7b2291e5b200ac8c7c3b92560405160405180910390a45050565b610f1f8282604051806020016040528060008152506116b2565b5050565b610f2c82610dd8565b610f6b576040517f08c379a0000000000000000000000000000000000000000000000000000000008152600401610f6290612983565b60405180910390fd5b80600660008481526020019081526020016000209080519060200190610f92929190611c9a565b505050565b6000610fa282610dd8565b610fe1576040517f08c379a0000000000000000000000000000000000000000000000000000000008152600401610fd890612a15565b60405180910390fd5b6000610fec83610802565b90508073ffffffffffffffffffffffffffffffffffffffff168473ffffffffffffffffffffffffffffffffffffffff16148061105b57508373ffffffffffffffffffffffffffffffffffffffff166110438461054a565b73ffffffffffffffffffffffffffffffffffffffff16145b8061106c575061106b8185610b54565b5b91505092915050565b8273ffffffffffffffffffffffffffffffffffffffff1661109582610802565b73ffffffffffffffffffffffffffffffffffffffff16146110eb576040517f08c379a00000000000000000000000000000000000000000000000000000000081526004016110e290612aa7565b60405180910390fd5b600073ffffffffffffffffffffffffffffffffffffffff168273ffffffffffffffffffffffffffffffffffffffff16141561115b576040517f08c379a000000000000000000000000000000000000000000000000000000000815260040161115290612b39565b60405180910390fd5b61116683838361170d565b611171600082610e4c565b6001600360008573ffffffffffffffffffffffffffffffffffffffff1673ffffffffffffffffffffffffffffffffffffffff16815260200190815260200160002060008282546111c19190612b88565b925050819055506001600360008473ffffffffffffffffffffffffffffffffffffffff1673ffffffffffffffffffffffffffffffffffffffff16815260200190815260200160002060008282546112189190612bbc565b92505081905550816002600083815260200190815260200160002060006101000a81548173ffffffffffffffffffffffffffffffffffffffff021916908373ffffffffffffffffffffffffffffffffffffffff160217905550808273ffffffffffffffffffffffffffffffffffffffff168473ffffffffffffffffffffffffffffffffffffffff167fddf252ad1be2c89b69c2b068fc378daa952ba7f163c4a11628f55a4df523b3ef60405160405180910390a4505050565b6000600760009054906101000a900473ffffffffffffffffffffffffffffffffffffffff16905081600760006101000a81548173ffffffffffffffffffffffffffffffffffffffff021916908373ffffffffffffffffffffffffffffffffffffffff1602179055508173ffffffffffffffffffffffffffffffffffffffff168173ffffffffffffffffffffffffffffffffffffffff167f8be0079c531659141344cd1fd0a4f28419497f9722a3daafe3b4186f6b6457e060405160405180910390a35050565b8173ffffffffffffffffffffffffffffffffffffffff168373ffffffffffffffffffffffffffffffffffffffff161415611406576040517f08c379a00000000000000000000000000000000000000000000000000000000081526004016113fd90612c5e565b60405180910390fd5b80600560008573ffffffffffffffffffffffffffffffffffffffff1673ffffffffffffffffffffffffffffffffffffffff16815260200190815260200160002060008473ffffffffffffffffffffffffffffffffffffffff1673ffffffffffffffffffffffffffffffffffffffff16815260200190815260200160002060006101000a81548160ff0219169083151502179055508173ffffffffffffffffffffffffffffffffffffffff168373ffffffffffffffffffffffffffffffffffffffff167f17307eab39ab6107e8899845ad3d59bd9653f200f220920489ca2b5937696c31836040516114f79190611e25565b60405180910390a3505050565b61150f848484611075565b61151b84848484611712565b61155a576040517f08c379a000000000000000000000000000000000000000000000000000000000815260040161155190612cf0565b60405180910390fd5b50505050565b606061156b82610dd8565b6115aa576040517f08c379a00000000000000000000000000000000000000000000000000000000081526004016115a190612d82565b60405180910390fd5b60006006600084815260200190815260200160002080546115ca90612475565b80601f01602080910402602001604051908101604052809291908181526020018280546115f690612475565b80156116435780601f1061161857610100808354040283529160200191611643565b820191906000526020600020905b81548152906001019060200180831161162657829003601f168201915b50505050509050600061165461189a565b905060008151141561166a5781925050506116ad565b60008251111561169f578082604051602001611687929190612dde565b604051602081830303815290604052925050506116ad565b6116a8846118b1565b925050505b919050565b6116bc8383611958565b6116c96000848484611712565b611708576040517f08c379a00000000000000000000000000000000000000000000000000000000081526004016116ff90612cf0565b60405180910390fd5b505050565b505050565b60006117338473ffffffffffffffffffffffffffffffffffffffff16611b26565b1561188d578373ffffffffffffffffffffffffffffffffffffffff1663150b7a0261175c610e44565b8786866040518563ffffffff1660e01b815260040161177e9493929190612e57565b6020604051808303816000875af19250505080156117ba57506040513d601f19601f820116820180604052508101906117b79190612eb8565b60015b61183d573d80600081146117ea576040519150601f19603f3d011682016040523d82523d6000602084013e6117ef565b606091505b50600081511415611835576040517f08c379a000000000000000000000000000000000000000000000000000000000815260040161182c90612cf0565b60405180910390fd5b805181602001fd5b63150b7a0260e01b7bffffffffffffffffffffffffffffffffffffffffffffffffffffffff1916817bffffffffffffffffffffffffffffffffffffffffffffffffffffffff191614915050611892565b600190505b949350505050565b606060405180602001604052806000815250905090565b60606118bc82610dd8565b6118fb576040517f08c379a00000000000000000000000000000000000000000000000000000000081526004016118f290612f57565b60405180910390fd5b600061190561189a565b905060008151116119255760405180602001604052806000815250611950565b8061192f84611b39565b604051602001611940929190612dde565b6040516020818303038152906040525b915050919050565b600073ffffffffffffffffffffffffffffffffffffffff168273ffffffffffffffffffffffffffffffffffffffff1614156119c8576040517f08c379a00000000000000000000000000000000000000000000000000000000081526004016119bf90612fc3565b60405180910390fd5b6119d181610dd8565b15611a11576040517f08c379a0000000000000000000000000000000000000000000000000000000008152600401611a089061302f565b60405180910390fd5b611a1d6000838361170d565b6001600360008473ffffffffffffffffffffffffffffffffffffffff1673ffffffffffffffffffffffffffffffffffffffff1681526020019081526020016000206000828254611a6d9190612bbc565b92505081905550816002600083815260200190815260200160002060006101000a81548173ffffffffffffffffffffffffffffffffffffffff021916908373ffffffffffffffffffffffffffffffffffffffff160217905550808273ffffffffffffffffffffffffffffffffffffffff16600073ffffffffffffffffffffffffffffffffffffffff167fddf252ad1be2c89b69c2b068fc378daa952ba7f163c4a11628f55a4df523b3ef60405160405180910390a45050565b600080823b905060008111915050919050565b60606000821415611b81576040518060400160405280600181526020017f30000000000000000000000000000000000000000000000000000000000000008152509050611c95565b600082905060005b60008214611bb3578080611b9c9061304f565b915050600a82611bac91906130c7565b9150611b89565b60008167ffffffffffffffff811115611bcf57611bce612026565b5b6040519080825280601f01601f191660200182016040528015611c015781602001600182028036833780820191505090505b5090505b60008514611c8e57600182611c1a9190612b88565b9150600a85611c2991906130f8565b6030611c359190612bbc565b60f81b818381518110611c4b57611c4a613129565b5b60200101907effffffffffffffffffffffffffffffffffffffffffffffffffffffffffffff1916908160001a905350600a85611c8791906130c7565b9450611c05565b8093505050505b919050565b828054611ca690612475565b90600052602060002090601f016020900481019282611cc85760008555611d0f565b82601f10611ce157805160ff1916838001178555611d0f565b82800160010185558215611d0f579182015b82811115611d0e578251825591602001919060010190611cf3565b5b509050611d1c9190611d20565b5090565b5b80821115611d39576000816000905550600101611d21565b5090565b6000819050919050565b611d5081611d3d565b82525050565b6000602082019050611d6b6000830184611d47565b92915050565b6000604051905090565b600080fd5b600080fd5b60007fffffffff0000000000000000000000000000000000000000000000000000000082169050919050565b611dba81611d85565b8114611dc557600080fd5b50565b600081359050611dd781611db1565b92915050565b600060208284031215611df357611df2611d7b565b5b6000611e0184828501611dc8565b91505092915050565b60008115159050919050565b611e1f81611e0a565b82525050565b6000602082019050611e3a6000830184611e16565b92915050565b600081519050919050565b600082825260208201905092915050565b60005b83811015611e7a578082015181840152602081019050611e5f565b83811115611e89576000848401525b50505050565b6000601f19601f8301169050919050565b6000611eab82611e40565b611eb58185611e4b565b9350611ec5818560208601611e5c565b611ece81611e8f565b840191505092915050565b60006020820190508181036000830152611ef38184611ea0565b905092915050565b611f0481611d3d565b8114611f0f57600080fd5b50565b600081359050611f2181611efb565b92915050565b600060208284031215611f3d57611f3c611d7b565b5b6000611f4b84828501611f12565b91505092915050565b600073ffffffffffffffffffffffffffffffffffffffff82169050919050565b6000611f7f82611f54565b9050919050565b611f8f81611f74565b82525050565b6000602082019050611faa6000830184611f86565b92915050565b611fb981611f74565b8114611fc457600080fd5b50565b600081359050611fd681611fb0565b92915050565b60008060408385031215611ff357611ff2611d7b565b5b600061200185828601611fc7565b925050602061201285828601611f12565b9150509250929050565b600080fd5b600080fd5b7f4e487b7100000000000000000000000000000000000000000000000000000000600052604160045260246000fd5b61205e82611e8f565b810181811067ffffffffffffffff8211171561207d5761207c612026565b5b80604052505050565b6000612090611d71565b905061209c8282612055565b919050565b600067ffffffffffffffff8211156120bc576120bb612026565b5b6120c582611e8f565b9050602081019050919050565b82818337600083830152505050565b60006120f46120ef846120a1565b612086565b9050828152602081018484840111156121105761210f612021565b5b61211b8482856120d2565b509392505050565b600082601f8301126121385761213761201c565b5b81356121488482602086016120e1565b91505092915050565b6000806040838503121561216857612167611d7b565b5b600061217685828601611f12565b925050602083013567ffffffffffffffff81111561219757612196611d80565b5b6121a385828601612123565b9150509250929050565b6000806000606084860312156121c6576121c5611d7b565b5b60006121d486828701611fc7565b93505060206121e586828701611fc7565b92505060406121f686828701611f12565b9150509250925092565b60006020828403121561221657612215611d7b565b5b600082013567ffffffffffffffff81111561223457612233611d80565b5b61224084828501612123565b91505092915050565b60006020828403121561225f5761225e611d7b565b5b600061226d84828501611fc7565b91505092915050565b61227f81611e0a565b811461228a57600080fd5b50565b60008135905061229c81612276565b92915050565b600080604083850312156122b9576122b8611d7b565b5b60006122c785828601611fc7565b92505060206122d88582860161228d565b9150509250929050565b600067ffffffffffffffff8211156122fd576122fc612026565b5b61230682611e8f565b9050602081019050919050565b6000612326612321846122e2565b612086565b90508281526020810184848401111561234257612341612021565b5b61234d8482856120d2565b509392505050565b600082601f83011261236a5761236961201c565b5b813561237a848260208601612313565b91505092915050565b6000806000806080858703121561239d5761239c611d7b565b5b60006123ab87828801611fc7565b94505060206123bc87828801611fc7565b93505060406123cd87828801611f12565b925050606085013567ffffffffffffffff8111156123ee576123ed611d80565b5b6123fa87828801612355565b91505092959194509250565b6000806040838503121561241d5761241c611d7b565b5b600061242b85828601611fc7565b925050602061243c85828601611fc7565b9150509250929050565b7f4e487b7100000000000000000000000000000000000000000000000000000000600052602260045260246000fd5b6000600282049050600182168061248d57607f821691505b602082108114156124a1576124a0612446565b5b50919050565b7f4552433732313a20617070726f76656420717565727920666f72206e6f6e657860008201527f697374656e7420746f6b656e0000000000000000000000000000000000000000602082015250565b6000612503602c83611e4b565b915061250e826124a7565b604082019050919050565b60006020820190508181036000830152612532816124f6565b9050919050565b7f4552433732313a20617070726f76616c20746f2063757272656e74206f776e6560008201527f7200000000000000000000000000000000000000000000000000000000000000602082015250565b6000612595602183611e4b565b91506125a082612539565b604082019050919050565b600060208201905081810360008301526125c481612588565b9050919050565b7f4552433732313a20617070726f76652063616c6c6572206973206e6f74206f7760008201527f6e6572206e6f7220617070726f76656420666f7220616c6c0000000000000000602082015250565b6000612627603883611e4b565b9150612632826125cb565b604082019050919050565b600060208201905081810360008301526126568161261a565b9050919050565b7f4f776e61626c653a2063616c6c6572206973206e6f7420746865206f776e6572600082015250565b6000612693602083611e4b565b915061269e8261265d565b602082019050919050565b600060208201905081810360008301526126c281612686565b9050919050565b7f4552433732313a207472616e736665722063616c6c6572206973206e6f74206f60008201527f776e6572206e6f7220617070726f766564000000000000000000000000000000602082015250565b6000612725603183611e4b565b9150612730826126c9565b604082019050919050565b6000602082019050818103600083015261275481612718565b9050919050565b7f4552433732313a206f776e657220717565727920666f72206e6f6e657869737460008201527f656e7420746f6b656e0000000000000000000000000000000000000000000000602082015250565b60006127b7602983611e4b565b91506127c28261275b565b604082019050919050565b600060208201905081810360008301526127e6816127aa565b9050919050565b7f4552433732313a2062616c616e636520717565727920666f7220746865207a6560008201527f726f206164647265737300000000000000000000000000000000000000000000602082015250565b6000612849602a83611e4b565b9150612854826127ed565b604082019050919050565b600060208201905081810360008301526128788161283c565b9050919050565b7f4f776e61626c653a206e6577206f776e657220697320746865207a65726f206160008201527f6464726573730000000000000000000000000000000000000000000000000000602082015250565b60006128db602683611e4b565b91506128e68261287f565b604082019050919050565b6000602082019050818103600083015261290a816128ce565b9050919050565b7f45524337323155524953746f726167653a2055524920736574206f66206e6f6e60008201527f6578697374656e7420746f6b656e000000000000000000000000000000000000602082015250565b600061296d602e83611e4b565b915061297882612911565b604082019050919050565b6000602082019050818103600083015261299c81612960565b9050919050565b7f4552433732313a206f70657261746f7220717565727920666f72206e6f6e657860008201527f697374656e7420746f6b656e0000000000000000000000000000000000000000602082015250565b60006129ff602c83611e4b565b9150612a0a826129a3565b604082019050919050565b60006020820190508181036000830152612a2e816129f2565b9050919050565b7f4552433732313a207472616e73666572206f6620746f6b656e2074686174206960008201527f73206e6f74206f776e0000000000000000000000000000000000000000000000602082015250565b6000612a91602983611e4b565b9150612a9c82612a35565b604082019050919050565b60006020820190508181036000830152612ac081612a84565b9050919050565b7f4552433732313a207472616e7366657220746f20746865207a65726f2061646460008201527f7265737300000000000000000000000000000000000000000000000000000000602082015250565b6000612b23602483611e4b565b9150612b2e82612ac7565b604082019050919050565b60006020820190508181036000830152612b5281612b16565b9050919050565b7f4e487b7100000000000000000000000000000000000000000000000000000000600052601160045260246000fd5b6000612b9382611d3d565b9150612b9e83611d3d565b925082821015612bb157612bb0612b59565b5b828203905092915050565b6000612bc782611d3d565b9150612bd283611d3d565b9250827fffffffffffffffffffffffffffffffffffffffffffffffffffffffffffffffff03821115612c0757612c06612b59565b5b828201905092915050565b7f4552433732313a20617070726f766520746f2063616c6c657200000000000000600082015250565b6000612c48601983611e4b565b9150612c5382612c12565b602082019050919050565b60006020820190508181036000830152612c7781612c3b565b9050919050565b7f4552433732313a207472616e7366657220746f206e6f6e20455243373231526560008201527f63656976657220696d706c656d656e7465720000000000000000000000000000602082015250565b6000612cda603283611e4b565b9150612ce582612c7e565b604082019050919050565b60006020820190508181036000830152612d0981612ccd565b9050919050565b7f45524337323155524953746f726167653a2055524920717565727920666f722060008201527f6e6f6e6578697374656e7420746f6b656e000000000000000000000000000000602082015250565b6000612d6c603183611e4b565b9150612d7782612d10565b604082019050919050565b60006020820190508181036000830152612d9b81612d5f565b9050919050565b600081905092915050565b6000612db882611e40565b612dc28185612da2565b9350612dd2818560208601611e5c565b80840191505092915050565b6000612dea8285612dad565b9150612df68284612dad565b91508190509392505050565b600081519050919050565b600082825260208201905092915050565b6000612e2982612e02565b612e338185612e0d565b9350612e43818560208601611e5c565b612e4c81611e8f565b840191505092915050565b6000608082019050612e6c6000830187611f86565b612e796020830186611f86565b612e866040830185611d47565b8181036060830152612e988184612e1e565b905095945050505050565b600081519050612eb281611db1565b92915050565b600060208284031215612ece57612ecd611d7b565b5b6000612edc84828501612ea3565b91505092915050565b7f4552433732314d657461646174613a2055524920717565727920666f72206e6f60008201527f6e6578697374656e7420746f6b656e0000000000000000000000000000000000602082015250565b6000612f41602f83611e4b565b9150612f4c82612ee5565b604082019050919050565b60006020820190508181036000830152612f7081612f34565b9050919050565b7f4552433732313a206d696e7420746f20746865207a65726f2061646472657373600082015250565b6000612fad602083611e4b565b9150612fb882612f77565b602082019050919050565b60006020820190508181036000830152612fdc81612fa0565b9050919050565b7f4552433732313a20746f6b656e20616c7265616479206d696e74656400000000600082015250565b6000613019601c83611e4b565b915061302482612fe3565b602082019050919050565b600060208201905081810360008301526130488161300c565b9050919050565b600061305a82611d3d565b91507fffffffffffffffffffffffffffffffffffffffffffffffffffffffffffffffff82141561308d5761308c612b59565b5b600182019050919050565b7f4e487b7100000000000000000000000000000000000000000000000000000000600052601260045260246000fd5b60006130d282611d3d565b91506130dd83611d3d565b9250826130ed576130ec613098565b5b828204905092915050565b600061310382611d3d565b915061310e83611d3d565b92508261311e5761311d613098565b5b828206905092915050565b7f4e487b7100000000000000000000000000000000000000000000000000000000600052603260045260246000fdfea26469706673582212208c9a05e7d4e2a593fbf016986be096e12a6e58f8e72a0b65ec2e54b9f4c1a56264736f6c634300080a0033",
  "immutableReferences": {},
  "source": "// SPDX-License-Identifier: MIT\npragma solidity 0.8.10;\n\nimport \"@openzeppelin/contracts/token/ERC721/ERC721.sol\";\nimport \"@openzeppelin/contracts/token/ERC721/extensions/ERC721URIStorage.sol\";\nimport \"@openzeppelin/contracts/access/Ownable.sol\";\n\ncontract SimpleCollectible is ERC721, ERC721URIStorage, Ownable {\n    uint256  public currentTokenId=0;\n    string  public myName=\"test\";\n\n    constructor() ERC721(\"KevinNFT\", \"KEVIN\") {}\n\n    function setTokenURI(uint256 tokenId, string memory uri)\n    public\n    onlyOwner\n    {\n        _safeMint(msg.sender, tokenId);\n        _setTokenURI(tokenId, uri);\n        currentTokenId = tokenId;\n    }\n\n    // The following functions are overrides required by Solidity.\n    function _burn(uint256 tokenId) internal override(ERC721, ERC721URIStorage) {\n        super._burn(tokenId);\n    }\n\n    function tokenURI(uint256 tokenId)\n    public\n    view\n    override(ERC721, ERC721URIStorage)\n    returns (string memory)\n    {\n        return super.tokenURI(tokenId);\n    }\n\n    function buyTokens(string memory name1) public {\n        myName = name1;\n    }\n}",
  "sourcePath": "/var/www/kevin/deployNFTOpensea/contracts/SimpleCollectible.sol",
  "compiler": {
    "name": "solc",
    "version": "0.8.10+commit.fc410830.Emscripten.clang"
  },
  "schemaVersion": "3.4.3",
  "updatedAt": "2022-01-11T03:33:05.066Z",
  "networkType": "ethereum",
  "devdoc": {
    "kind": "dev",
    "methods": {
      "approve(address,uint256)": {
        "details": "See {IERC721-approve}."
      },
      "balanceOf(address)": {
        "details": "See {IERC721-balanceOf}."
      },
      "getApproved(uint256)": {
        "details": "See {IERC721-getApproved}."
      },
      "isApprovedForAll(address,address)": {
        "details": "See {IERC721-isApprovedForAll}."
      },
      "name()": {
        "details": "See {IERC721Metadata-name}."
      },
      "owner()": {
        "details": "Returns the address of the current owner."
      },
      "ownerOf(uint256)": {
        "details": "See {IERC721-ownerOf}."
      },
      "renounceOwnership()": {
        "details": "Leaves the contract without owner. It will not be possible to call `onlyOwner` functions anymore. Can only be called by the current owner. NOTE: Renouncing ownership will leave the contract without an owner, thereby removing any functionality that is only available to the owner."
      },
      "safeTransferFrom(address,address,uint256)": {
        "details": "See {IERC721-safeTransferFrom}."
      },
      "safeTransferFrom(address,address,uint256,bytes)": {
        "details": "See {IERC721-safeTransferFrom}."
      },
      "setApprovalForAll(address,bool)": {
        "details": "See {IERC721-setApprovalForAll}."
      },
      "supportsInterface(bytes4)": {
        "details": "See {IERC165-supportsInterface}."
      },
      "symbol()": {
        "details": "See {IERC721Metadata-symbol}."
      },
      "transferFrom(address,address,uint256)": {
        "details": "See {IERC721-transferFrom}."
      },
      "transferOwnership(address)": {
        "details": "Transfers ownership of the contract to a new account (`newOwner`). Can only be called by the current owner."
      }
    },
    "version": 1
  },
  "userdoc": {
    "kind": "user",
    "methods": {},
    "version": 1
  }
}